{
  "contractName": "Election",
  "abi": [
    {
      "inputs": [],
      "payable": false,
      "stateMutability": "nonpayable",
      "type": "constructor"
    },
    {
      "anonymous": false,
      "inputs": [
        {
          "indexed": false,
          "internalType": "uint256",
          "name": "id",
          "type": "uint256"
        },
        {
          "indexed": false,
          "internalType": "string",
          "name": "name",
          "type": "string"
        },
        {
          "indexed": false,
          "internalType": "string",
          "name": "position",
          "type": "string"
        },
        {
          "indexed": false,
          "internalType": "address payable",
          "name": "author",
          "type": "address"
        }
      ],
      "name": "CandidateAdded",
      "type": "event"
    },
    {
      "constant": true,
      "inputs": [
        {
          "internalType": "uint256",
          "name": "",
          "type": "uint256"
        }
      ],
      "name": "admins",
      "outputs": [
        {
          "internalType": "address",
          "name": "",
          "type": "address"
        }
      ],
      "payable": false,
      "stateMutability": "view",
      "type": "function"
    },
    {
      "constant": true,
      "inputs": [
        {
          "internalType": "uint256",
          "name": "",
          "type": "uint256"
        }
      ],
      "name": "candidates",
      "outputs": [
        {
          "internalType": "uint256",
          "name": "id",
          "type": "uint256"
        },
        {
          "internalType": "string",
          "name": "name",
          "type": "string"
        },
        {
          "internalType": "string",
          "name": "position",
          "type": "string"
        },
        {
          "internalType": "uint256",
          "name": "voteCount",
          "type": "uint256"
        },
        {
          "internalType": "string",
          "name": "status",
          "type": "string"
        },
        {
          "internalType": "uint256",
          "name": "electionId",
          "type": "uint256"
        }
      ],
      "payable": false,
      "stateMutability": "view",
      "type": "function"
    },
    {
      "constant": true,
      "inputs": [],
      "name": "candidatesCount",
      "outputs": [
        {
          "internalType": "uint256",
          "name": "",
          "type": "uint256"
        }
      ],
      "payable": false,
      "stateMutability": "view",
      "type": "function"
    },
    {
      "constant": true,
      "inputs": [],
      "name": "electionCount",
      "outputs": [
        {
          "internalType": "uint256",
          "name": "",
          "type": "uint256"
        }
      ],
      "payable": false,
      "stateMutability": "view",
      "type": "function"
    },
    {
      "constant": true,
      "inputs": [
        {
          "internalType": "uint256",
          "name": "",
          "type": "uint256"
        }
      ],
      "name": "elections",
      "outputs": [
        {
          "internalType": "uint256",
          "name": "electionId",
          "type": "uint256"
        },
        {
          "internalType": "string",
          "name": "name",
          "type": "string"
        },
        {
          "internalType": "uint256",
          "name": "totalCandidates",
          "type": "uint256"
        },
        {
          "internalType": "string",
          "name": "electionStatus",
          "type": "string"
        }
      ],
      "payable": false,
      "stateMutability": "view",
      "type": "function"
    },
    {
      "constant": false,
      "inputs": [
        {
          "internalType": "string",
          "name": "_name",
          "type": "string"
        }
      ],
      "name": "addElection",
      "outputs": [],
      "payable": false,
      "stateMutability": "nonpayable",
      "type": "function"
    },
    {
      "constant": false,
      "inputs": [
        {
          "internalType": "string",
          "name": "_name",
          "type": "string"
        },
        {
          "internalType": "uint256",
          "name": "_electionId",
          "type": "uint256"
        }
      ],
      "name": "editElectionName",
      "outputs": [],
      "payable": false,
      "stateMutability": "nonpayable",
      "type": "function"
    },
    {
      "constant": false,
      "inputs": [
        {
          "internalType": "string",
          "name": "_name",
          "type": "string"
        },
        {
          "internalType": "string",
          "name": "_position",
          "type": "string"
        },
        {
          "internalType": "uint256",
          "name": "_electionId",
          "type": "uint256"
        }
      ],
      "name": "addCandidate",
      "outputs": [],
      "payable": false,
      "stateMutability": "nonpayable",
      "type": "function"
    },
    {
      "constant": false,
      "inputs": [
        {
          "internalType": "uint256",
          "name": "_candidateId",
          "type": "uint256"
        }
      ],
      "name": "deleteCandidate",
      "outputs": [],
      "payable": false,
      "stateMutability": "nonpayable",
      "type": "function"
    },
    {
      "constant": false,
      "inputs": [
        {
          "internalType": "uint256",
          "name": "_candidateId",
          "type": "uint256"
        },
        {
          "internalType": "uint256",
          "name": "_electionId",
          "type": "uint256"
        }
      ],
      "name": "vote",
      "outputs": [],
      "payable": false,
      "stateMutability": "nonpayable",
      "type": "function"
    }
  ],
  "bytecode": "0x60806040523480156200001157600080fd5b50620000586040518060400160405280600f81526020017f5465737420456c656374696f6e203100000000000000000000000000000000008152506200031a60201b60201c565b6200009e6040518060400160405280600f81526020017f5465737420456c656374696f6e203200000000000000000000000000000000008152506200031a60201b60201c565b6200011c6040518060400160405280601081526020017f546573742043616e6469646174652031000000000000000000000000000000008152506040518060400160405280600281526020017f4e4100000000000000000000000000000000000000000000000000000000000081525060016200044560201b60201c565b6200019a6040518060400160405280601081526020017f546573742043616e6469646174652032000000000000000000000000000000008152506040518060400160405280600281526020017f4e4100000000000000000000000000000000000000000000000000000000000081525060016200044560201b60201c565b620002186040518060400160405280601081526020017f546573742043616e6469646174652033000000000000000000000000000000008152506040518060400160405280600281526020017f4e4100000000000000000000000000000000000000000000000000000000000081525060016200044560201b60201c565b620002966040518060400160405280601081526020017f546573742043616e6469646174652034000000000000000000000000000000008152506040518060400160405280600281526020017f4e4100000000000000000000000000000000000000000000000000000000000081525060026200044560201b60201c565b620003146040518060400160405280601081526020017f546573742043616e6469646174652035000000000000000000000000000000008152506040518060400160405280600281526020017f4e4100000000000000000000000000000000000000000000000000000000000081525060026200044560201b60201c565b6200082e565b60016000815480929190600101919050555060405180608001604052806001548152602001828152602001600081526020016040518060400160405280600481526020017f4f70656e000000000000000000000000000000000000000000000000000000008152508152506000806001548152602001908152602001600020600082015181600001556020820151816001019080519060200190620003c19291906200077f565b50604082015181600201556060820151816003019080519060200190620003ea9291906200077f565b509050503360026000600154815260200190815260200160002060006101000a81548173ffffffffffffffffffffffffffffffffffffffff021916908373ffffffffffffffffffffffffffffffffffffffff16021790555050565b3373ffffffffffffffffffffffffffffffffffffffff166002600083815260200190815260200160002060009054906101000a900473ffffffffffffffffffffffffffffffffffffffff1673ffffffffffffffffffffffffffffffffffffffff1614620004fe576040517f08c379a000000000000000000000000000000000000000000000000000000000815260040180806020018281038252603f81526020018062001e2b603f913960400191505060405180910390fd5b6004600081548092919060010191905055506040518060c001604052806004548152602001848152602001838152602001600081526020016040518060400160405280600781526020017f52756e6e696e6700000000000000000000000000000000000000000000000000815250815260200182815250600360006004548152602001908152602001600020600082015181600001556020820151816001019080519060200190620005b29291906200077f565b506040820151816002019080519060200190620005d19291906200077f565b50606082015181600301556080820151816004019080519060200190620005fa9291906200077f565b5060a08201518160050155905050600080828152602001908152602001600020600201600081548092919060010191905055507fee2b147ff262d63daa02b764754e32ce0ecd6d4ee6fdf23f2075fb7ece8670fa6004548484336040518085815260200180602001806020018473ffffffffffffffffffffffffffffffffffffffff1673ffffffffffffffffffffffffffffffffffffffff168152602001838103835286818151815260200191508051906020019080838360005b83811015620006d2578082015181840152602081019050620006b5565b50505050905090810190601f168015620007005780820380516001836020036101000a031916815260200191505b50838103825285818151815260200191508051906020019080838360005b838110156200073b5780820151818401526020810190506200071e565b50505050905090810190601f168015620007695780820380516001836020036101000a031916815260200191505b50965050505050505060405180910390a1505050565b828054600181600116156101000203166002900490600052602060002090601f016020900481019282601f10620007c257805160ff1916838001178555620007f3565b82800160010185558215620007f3579182015b82811115620007f2578251825591602001919060010190620007d5565b5b50905062000802919062000806565b5090565b6200082b91905b80821115620008275760008160009055506001016200080d565b5090565b90565b6115ed806200083e6000396000f3fe608060405234801561001057600080fd5b506004361061009e5760003560e01c80633ca09fdf116100665780633ca09fdf146103ac5780635e6fef0114610508578063997d283014610629578063b384abef14610647578063fd2d76061461067f5761009e565b806314bfd6d0146100a35780631e620cd4146101115780632d35a8a21461013f5780633477ee2e1461015d578063358b9d97146102f1575b600080fd5b6100cf600480360360208110156100b957600080fd5b8101908080359060200190929190505050610744565b604051808273ffffffffffffffffffffffffffffffffffffffff1673ffffffffffffffffffffffffffffffffffffffff16815260200191505060405180910390f35b61013d6004803603602081101561012757600080fd5b8101908080359060200190929190505050610777565b005b6101476108f4565b6040518082815260200191505060405180910390f35b6101896004803603602081101561017357600080fd5b81019080803590602001909291905050506108fa565b60405180878152602001806020018060200186815260200180602001858152602001848103845289818151815260200191508051906020019080838360005b838110156101e35780820151818401526020810190506101c8565b50505050905090810190601f1680156102105780820380516001836020036101000a031916815260200191505b50848103835288818151815260200191508051906020019080838360005b8381101561024957808201518184015260208101905061022e565b50505050905090810190601f1680156102765780820380516001836020036101000a031916815260200191505b50848103825286818151815260200191508051906020019080838360005b838110156102af578082015181840152602081019050610294565b50505050905090810190601f1680156102dc5780820380516001836020036101000a031916815260200191505b50995050505050505050505060405180910390f35b6103aa6004803603602081101561030757600080fd5b810190808035906020019064010000000081111561032457600080fd5b82018360208201111561033657600080fd5b8035906020019184600183028401116401000000008311171561035857600080fd5b91908080601f016020809104026020016040519081016040528093929190818152602001838380828437600081840152601f19601f820116905080830192505050505050509192919290505050610afe565b005b610506600480360360608110156103c257600080fd5b81019080803590602001906401000000008111156103df57600080fd5b8201836020820111156103f157600080fd5b8035906020019184600183028401116401000000008311171561041357600080fd5b91908080601f016020809104026020016040519081016040528093929190818152602001838380828437600081840152601f19601f8201169050808301925050505050505091929192908035906020019064010000000081111561047657600080fd5b82018360208201111561048857600080fd5b803590602001918460018302840111640100000000831117156104aa57600080fd5b91908080601f016020809104026020016040519081016040528093929190818152602001838380828437600081840152601f19601f82011690508083019250505050505050919291929080359060200190929190505050610c25565b005b6105346004803603602081101561051e57600080fd5b8101908080359060200190929190505050610f51565b604051808581526020018060200184815260200180602001838103835286818151815260200191508051906020019080838360005b83811015610584578082015181840152602081019050610569565b50505050905090810190601f1680156105b15780820380516001836020036101000a031916815260200191505b50838103825284818151815260200191508051906020019080838360005b838110156105ea5780820151818401526020810190506105cf565b50505050905090810190601f1680156106175780820380516001836020036101000a031916815260200191505b50965050505050505060405180910390f35b6106316110b1565b6040518082815260200191505060405180910390f35b61067d6004803603604081101561065d57600080fd5b8101908080359060200190929190803590602001909291905050506110b7565b005b6107426004803603604081101561069557600080fd5b81019080803590602001906401000000008111156106b257600080fd5b8201836020820111156106c457600080fd5b803590602001918460018302840111640100000000831117156106e657600080fd5b91908080601f016020809104026020016040519081016040528093929190818152602001838380828437600081840152601f19601f82011690508083019250505050505050919291929080359060200190929190505050611269565b005b60026020528060005260406000206000915054906101000a900473ffffffffffffffffffffffffffffffffffffffff1681565b3373ffffffffffffffffffffffffffffffffffffffff16600260006003600085815260200190815260200160002060050154815260200190815260200160002060009054906101000a900473ffffffffffffffffffffffffffffffffffffffff1673ffffffffffffffffffffffffffffffffffffffff1614610844576040517f08c379a00000000000000000000000000000000000000000000000000000000081526004018080602001828103825260318152602001806114bc6031913960400191505060405180910390fd5b600080600360008481526020019081526020016000206005015481526020019081526020016000206002016000815480929190600190039190505550600360008281526020019081526020016000206000808201600090556001820160006108ac919061134e565b6002820160006108bc919061134e565b60038201600090556004820160006108d4919061134e565b600582016000905550506004600081548092919060019003919050555050565b60045481565b6003602052806000526040600020600091509050806000015490806001018054600181600116156101000203166002900480601f0160208091040260200160405190810160405280929190818152602001828054600181600116156101000203166002900480156109ac5780601f10610981576101008083540402835291602001916109ac565b820191906000526020600020905b81548152906001019060200180831161098f57829003601f168201915b505050505090806002018054600181600116156101000203166002900480601f016020809104026020016040519081016040528092919081815260200182805460018160011615610100020316600290048015610a4a5780601f10610a1f57610100808354040283529160200191610a4a565b820191906000526020600020905b815481529060010190602001808311610a2d57829003601f168201915b505050505090806003015490806004018054600181600116156101000203166002900480601f016020809104026020016040519081016040528092919081815260200182805460018160011615610100020316600290048015610aee5780601f10610ac357610100808354040283529160200191610aee565b820191906000526020600020905b815481529060010190602001808311610ad157829003601f168201915b5050505050908060050154905086565b60016000815480929190600101919050555060405180608001604052806001548152602001828152602001600081526020016040518060400160405280600481526020017f4f70656e000000000000000000000000000000000000000000000000000000008152508152506000806001548152602001908152602001600020600082015181600001556020820151816001019080519060200190610ba3929190611396565b50604082015181600201556060820151816003019080519060200190610bca929190611396565b509050503360026000600154815260200190815260200160002060006101000a81548173ffffffffffffffffffffffffffffffffffffffff021916908373ffffffffffffffffffffffffffffffffffffffff16021790555050565b3373ffffffffffffffffffffffffffffffffffffffff166002600083815260200190815260200160002060009054906101000a900473ffffffffffffffffffffffffffffffffffffffff1673ffffffffffffffffffffffffffffffffffffffff1614610cdc576040517f08c379a000000000000000000000000000000000000000000000000000000000815260040180806020018281038252603f815260200180611547603f913960400191505060405180910390fd5b6004600081548092919060010191905055506040518060c001604052806004548152602001848152602001838152602001600081526020016040518060400160405280600781526020017f52756e6e696e6700000000000000000000000000000000000000000000000000815250815260200182815250600360006004548152602001908152602001600020600082015181600001556020820151816001019080519060200190610d8e929190611396565b506040820151816002019080519060200190610dab929190611396565b50606082015181600301556080820151816004019080519060200190610dd2929190611396565b5060a08201518160050155905050600080828152602001908152602001600020600201600081548092919060010191905055507fee2b147ff262d63daa02b764754e32ce0ecd6d4ee6fdf23f2075fb7ece8670fa6004548484336040518085815260200180602001806020018473ffffffffffffffffffffffffffffffffffffffff1673ffffffffffffffffffffffffffffffffffffffff168152602001838103835286818151815260200191508051906020019080838360005b83811015610ea8578082015181840152602081019050610e8d565b50505050905090810190601f168015610ed55780820380516001836020036101000a031916815260200191505b50838103825285818151815260200191508051906020019080838360005b83811015610f0e578082015181840152602081019050610ef3565b50505050905090810190601f168015610f3b5780820380516001836020036101000a031916815260200191505b50965050505050505060405180910390a1505050565b6000602052806000526040600020600091509050806000015490806001018054600181600116156101000203166002900480601f0160208091040260200160405190810160405280929190818152602001828054600181600116156101000203166002900480156110035780601f10610fd857610100808354040283529160200191611003565b820191906000526020600020905b815481529060010190602001808311610fe657829003601f168201915b505050505090806002015490806003018054600181600116156101000203166002900480601f0160208091040260200160405190810160405280929190818152602001828054600181600116156101000203166002900480156110a75780601f1061107c576101008083540402835291602001916110a7565b820191906000526020600020905b81548152906001019060200180831161108a57829003601f168201915b5050505050905084565b60015481565b60008082815260200190815260200160002060040160003373ffffffffffffffffffffffffffffffffffffffff1673ffffffffffffffffffffffffffffffffffffffff16815260200190815260200160002060009054906101000a900460ff161561116d576040517f08c379a000000000000000000000000000000000000000000000000000000000815260040180806020018281038252602881526020018061151f6028913960400191505060405180910390fd5b60008211801561117f57506004548211155b6111d4576040517f08c379a00000000000000000000000000000000000000000000000000000000081526004018080602001828103825260328152602001806114ed6032913960400191505060405180910390fd5b6003600083815260200190815260200160002060030160008154809291906001019190505550600160008083815260200190815260200160002060040160003373ffffffffffffffffffffffffffffffffffffffff1673ffffffffffffffffffffffffffffffffffffffff16815260200190815260200160002060006101000a81548160ff0219169083151502179055505050565b3373ffffffffffffffffffffffffffffffffffffffff166002600083815260200190815260200160002060009054906101000a900473ffffffffffffffffffffffffffffffffffffffff1673ffffffffffffffffffffffffffffffffffffffff1614611320576040517f08c379a00000000000000000000000000000000000000000000000000000000081526004018080602001828103825260338152602001806115866033913960400191505060405180910390fd5b816000808381526020019081526020016000206001019080519060200190611349929190611416565b505050565b50805460018160011615610100020316600290046000825580601f106113745750611393565b601f0160209004906000526020600020908101906113929190611496565b5b50565b828054600181600116156101000203166002900490600052602060002090601f016020900481019282601f106113d757805160ff1916838001178555611405565b82800160010185558215611405579182015b828111156114045782518255916020019190600101906113e9565b5b5090506114129190611496565b5090565b828054600181600116156101000203166002900490600052602060002090601f016020900481019282601f1061145757805160ff1916838001178555611485565b82800160010185558215611485579182015b82811115611484578251825591602001919060010190611469565b5b5090506114929190611496565b5090565b6114b891905b808211156114b457600081600090555060010161149c565b5090565b9056fe596f7520646f206e6f742068617665207065726d697373696f6e7320746f2064656c6574652063616e646964617465732e5468652063616e64696461746520796f7520747269656420746f20766f746520666f7220646f65736e27742065786973742e596f75206861766520616c726561647920766f74656420696e207468697320656c656374696f6e2e596f7520646f206e6f742068617665207065726d697373696f6e7320746f206164642063616e6469646174657320746f207468697320656c656374696f6e2e596f7520646f206e6f742068617665207065726d697373696f6e7320746f206368616e6765207468697320656c656374696f6ea265627a7a723158207f6c41435bcc4555780dd2634091bb39ed2c4e6d4392f1c4389c980318dfcd2f64736f6c63430005100032596f7520646f206e6f742068617665207065726d697373696f6e7320746f206164642063616e6469646174657320746f207468697320656c656374696f6e2e",
  "source": "pragma solidity ^0.5.0;\r\n\r\ncontract Election {\r\n    // Model a Candidate\r\n    struct Candidate {\r\n        uint id;\r\n        string name;\r\n        string position;\r\n        uint voteCount;\r\n        string status;\r\n        uint electionId;\r\n        // uint election_id;\r\n        // string election_status; // open or closed\r\n        // string election_result; // elected or not\r\n    }\r\n\r\n    event CandidateAdded(\r\n        uint id,\r\n        string name,\r\n        string position,\r\n        address payable author\r\n    );\r\n\r\n    struct Elections {\r\n        uint electionId;\r\n        string name;\r\n        uint totalCandidates;\r\n        string electionStatus;\r\n        mapping(address => bool) voters;\r\n\r\n    }\r\n\r\n    // Elections mapping\r\n    mapping(uint => Elections) public elections;\r\n    uint public electionCount;\r\n\r\n    // Election Admins\r\n    mapping(uint => address) public admins;\r\n\r\n    // Candidate mapping\r\n    mapping(uint => Candidate) public candidates;\r\n    uint public candidatesCount;\r\n\r\n    // Constructor\r\n    constructor() public {\r\n        addElection(\"Test Election 1\");\r\n        addElection(\"Test Election 2\");\r\n\r\n        addCandidate(\"Test Candidate 1\", \"NA\", 1);\r\n        addCandidate(\"Test Candidate 2\", \"NA\", 1);\r\n        addCandidate(\"Test Candidate 3\", \"NA\", 1);\r\n\r\n        addCandidate(\"Test Candidate 4\", \"NA\", 2);\r\n        addCandidate(\"Test Candidate 5\", \"NA\", 2);\r\n    }\r\n\r\n    function addElection(string memory _name) public {\r\n        electionCount++;\r\n        elections[electionCount] = Elections(electionCount, _name, 0, \"Open\");\r\n        admins[electionCount] = msg.sender;\r\n    }\r\n\r\n    function editElectionName(string memory _name, uint _electionId) public {\r\n        require(admins[_electionId] == msg.sender, \"You do not have permissions to change this election\");\r\n        elections[_electionId].name = _name;\r\n    }\r\n\r\n    function addCandidate(string memory _name, string memory _position, uint _electionId) public {\r\n        require(admins[_electionId] == msg.sender, \"You do not have permissions to add candidates to this election.\");\r\n\r\n        candidatesCount ++;\r\n        candidates[candidatesCount] = Candidate(candidatesCount, _name, _position, 0, \"Running\", _electionId);\r\n        elections[_electionId].totalCandidates++;\r\n        emit CandidateAdded(candidatesCount, _name, _position, msg.sender);\r\n    }\r\n\r\n    function deleteCandidate(uint _candidateId) public {\r\n        require(admins[candidates[_candidateId].electionId] == msg.sender, \"You do not have permissions to delete candidates.\");\r\n        elections[candidates[_candidateId].electionId].totalCandidates --;\r\n        delete candidates[_candidateId];\r\n        candidatesCount --;\r\n    }\r\n\r\n    function vote(uint _candidateId, uint _electionId) public {\r\n        // Require that they haven't voted before\r\n        //require(!voters[msg.sender], \"You have already cast a vote in this election\");\r\n        require(!elections[_electionId].voters[msg.sender], \"You have already voted in this election.\");\r\n\r\n        // Require a valid candidate to vote on\r\n        require(_candidateId > 0 && _candidateId <= candidatesCount, \"The candidate you tried to vote for doesn't exist.\");\r\n\r\n        // record that voter has voted\r\n        //voters[msg.sender] = true;\r\n        // update candidate vote count\r\n        candidates[_candidateId].voteCount++;\r\n        elections[_electionId].voters[msg.sender] = true;\r\n    }\r\n}",
  "sourcePath": "C:\\Users\\ciara\\DCU Modules\\Devote 3rd Year Project\\2020-ca326-tcoynemorgan-DecentralizedVotingApp\\code\\dapp_testing\\src\\contracts\\Election.sol",
  "compiler": {
    "name": "solc",
    "version": "0.5.16+commit.9c3226ce.Emscripten.clang"
  },
  "schemaVersion": "3.0.23",
  "updatedAt": "2020-02-21T16:27:46.550Z",
  "networkType": "ethereum",
  "devdoc": {
    "methods": {}
  },
  "userdoc": {
    "methods": {}
  }
}