{
  "contractName": "Election",
  "abi": [
    {
      "inputs": [],
      "payable": false,
      "stateMutability": "nonpayable",
      "type": "constructor"
    },
    {
      "anonymous": false,
      "inputs": [
        {
          "indexed": false,
          "internalType": "uint256",
          "name": "id",
          "type": "uint256"
        },
        {
          "indexed": false,
          "internalType": "string",
          "name": "name",
          "type": "string"
        },
        {
          "indexed": false,
          "internalType": "string",
          "name": "position",
          "type": "string"
        },
        {
          "indexed": false,
          "internalType": "address payable",
          "name": "author",
          "type": "address"
        }
      ],
      "name": "CandidateAdded",
      "type": "event"
    },
    {
      "constant": true,
      "inputs": [
        {
          "internalType": "uint256",
          "name": "",
          "type": "uint256"
        }
      ],
      "name": "candidates",
      "outputs": [
        {
          "internalType": "uint256",
          "name": "id",
          "type": "uint256"
        },
        {
          "internalType": "string",
          "name": "name",
          "type": "string"
        },
        {
          "internalType": "string",
          "name": "position",
          "type": "string"
        },
        {
          "internalType": "uint256",
          "name": "voteCount",
          "type": "uint256"
        },
        {
          "internalType": "string",
          "name": "status",
          "type": "string"
        },
        {
          "internalType": "uint256",
          "name": "electionId",
          "type": "uint256"
        }
      ],
      "payable": false,
      "stateMutability": "view",
      "type": "function"
    },
    {
      "constant": true,
      "inputs": [],
      "name": "candidatesCount",
      "outputs": [
        {
          "internalType": "uint256",
          "name": "",
          "type": "uint256"
        }
      ],
      "payable": false,
      "stateMutability": "view",
      "type": "function"
    },
    {
      "constant": true,
      "inputs": [],
      "name": "electionCount",
      "outputs": [
        {
          "internalType": "uint256",
          "name": "",
          "type": "uint256"
        }
      ],
      "payable": false,
      "stateMutability": "view",
      "type": "function"
    },
    {
      "constant": true,
      "inputs": [
        {
          "internalType": "uint256",
          "name": "",
          "type": "uint256"
        }
      ],
      "name": "elections",
      "outputs": [
        {
          "internalType": "uint256",
          "name": "electionId",
          "type": "uint256"
        },
        {
          "internalType": "string",
          "name": "name",
          "type": "string"
        },
        {
          "internalType": "uint256",
          "name": "totalCandidates",
          "type": "uint256"
        },
        {
          "internalType": "string",
          "name": "electionStatus",
          "type": "string"
        }
      ],
      "payable": false,
      "stateMutability": "view",
      "type": "function"
    },
    {
      "constant": true,
      "inputs": [
        {
          "internalType": "address",
          "name": "",
          "type": "address"
        }
      ],
      "name": "voters",
      "outputs": [
        {
          "internalType": "bool",
          "name": "",
          "type": "bool"
        }
      ],
      "payable": false,
      "stateMutability": "view",
      "type": "function"
    },
    {
      "constant": false,
      "inputs": [
        {
          "internalType": "string",
          "name": "_name",
          "type": "string"
        },
        {
          "internalType": "string",
          "name": "_firstCandidate",
          "type": "string"
        }
      ],
      "name": "addElection",
      "outputs": [],
      "payable": false,
      "stateMutability": "nonpayable",
      "type": "function"
    },
    {
      "constant": false,
      "inputs": [
        {
          "internalType": "string",
          "name": "_name",
          "type": "string"
        },
        {
          "internalType": "string",
          "name": "_position",
          "type": "string"
        },
        {
          "internalType": "uint256",
          "name": "_election",
          "type": "uint256"
        }
      ],
      "name": "addCandidate",
      "outputs": [],
      "payable": false,
      "stateMutability": "nonpayable",
      "type": "function"
    },
    {
      "constant": false,
      "inputs": [
        {
          "internalType": "uint256",
          "name": "_candidateId",
          "type": "uint256"
        }
      ],
      "name": "vote",
      "outputs": [],
      "payable": false,
      "stateMutability": "nonpayable",
      "type": "function"
    }
  ],
  "bytecode": "0x60806040523480156200001157600080fd5b506200008e6040518060400160405280601181526020017f43696172616e277320456c656374696f6e0000000000000000000000000000008152506040518060400160405280600d81526020017f43696172616e2050616c6d6572000000000000000000000000000000000000008152506200038660201b60201c565b6200010a6040518060400160405280601381526020017f456e67696e656572696e6720536f6369657479000000000000000000000000008152506040518060400160405280600a81526020017f5061756c20536d697468000000000000000000000000000000000000000000008152506200038660201b60201c565b620001886040518060400160405280600981526020017f4a6f686e20546f646400000000000000000000000000000000000000000000008152506040518060400160405280600281526020017f4e410000000000000000000000000000000000000000000000000000000000008152506001620004a860201b60201c565b620002066040518060400160405280600e81526020017f526562656363612057696c736f6e0000000000000000000000000000000000008152506040518060400160405280600281526020017f4e410000000000000000000000000000000000000000000000000000000000008152506001620004a860201b60201c565b620002846040518060400160405280600981526020017f4a656e204b656f676800000000000000000000000000000000000000000000008152506040518060400160405280600281526020017f4e410000000000000000000000000000000000000000000000000000000000008152506001620004a860201b60201c565b620003026040518060400160405280600b81526020017f57696c6c205061726b65720000000000000000000000000000000000000000008152506040518060400160405280600281526020017f4e410000000000000000000000000000000000000000000000000000000000008152506002620004a860201b60201c565b620003806040518060400160405280600a81526020017f4a61636b20426c61636b000000000000000000000000000000000000000000008152506040518060400160405280600281526020017f4e410000000000000000000000000000000000000000000000000000000000008152506002620004a860201b60201c565b620007d8565b60016000815480929190600101919050555060405180608001604052806001548152602001838152602001600081526020016040518060400160405280600481526020017f4f70656e0000000000000000000000000000000000000000000000000000000081525081525060008060015481526020019081526020016000206000820151816000015560208201518160010190805190602001906200042d92919062000729565b506040820151816002015560608201518160030190805190602001906200045692919062000729565b50905050620004a4816040518060400160405280600281526020017f4e41000000000000000000000000000000000000000000000000000000000000815250600154620004a860201b60201c565b5050565b6004600081548092919060010191905055506040518060c001604052806004548152602001848152602001838152602001600081526020016040518060400160405280600781526020017f52756e6e696e67000000000000000000000000000000000000000000000000008152508152602001828152506003600060045481526020019081526020016000206000820151816000015560208201518160010190805190602001906200055c92919062000729565b5060408201518160020190805190602001906200057b92919062000729565b50606082015181600301556080820151816004019080519060200190620005a492919062000729565b5060a08201518160050155905050600080828152602001908152602001600020600201600081548092919060010191905055507fee2b147ff262d63daa02b764754e32ce0ecd6d4ee6fdf23f2075fb7ece8670fa6004548484336040518085815260200180602001806020018473ffffffffffffffffffffffffffffffffffffffff1673ffffffffffffffffffffffffffffffffffffffff168152602001838103835286818151815260200191508051906020019080838360005b838110156200067c5780820151818401526020810190506200065f565b50505050905090810190601f168015620006aa5780820380516001836020036101000a031916815260200191505b50838103825285818151815260200191508051906020019080838360005b83811015620006e5578082015181840152602081019050620006c8565b50505050905090810190601f168015620007135780820380516001836020036101000a031916815260200191505b50965050505050505060405180910390a1505050565b828054600181600116156101000203166002900490600052602060002090601f016020900481019282601f106200076c57805160ff19168380011785556200079d565b828001600101855582156200079d579182015b828111156200079c5782518255916020019190600101906200077f565b5b509050620007ac9190620007b0565b5090565b620007d591905b80821115620007d1576000816000905550600101620007b7565b5090565b90565b61109480620007e86000396000f3fe608060405234801561001057600080fd5b50600436106100885760003560e01c80635e6fef011161005b5780635e6fef01146103c957806395b79907146104ea578063997d28301461063c578063a3ec138d1461065a57610088565b80630121b93f1461008d5780632d35a8a2146100bb5780633477ee2e146100d95780633ca09fdf1461026d575b600080fd5b6100b9600480360360208110156100a357600080fd5b81019080803590602001909291905050506106b6565b005b6100c3610841565b6040518082815260200191505060405180910390f35b610105600480360360208110156100ef57600080fd5b8101908080359060200190929190505050610847565b60405180878152602001806020018060200186815260200180602001858152602001848103845289818151815260200191508051906020019080838360005b8381101561015f578082015181840152602081019050610144565b50505050905090810190601f16801561018c5780820380516001836020036101000a031916815260200191505b50848103835288818151815260200191508051906020019080838360005b838110156101c55780820151818401526020810190506101aa565b50505050905090810190601f1680156101f25780820380516001836020036101000a031916815260200191505b50848103825286818151815260200191508051906020019080838360005b8381101561022b578082015181840152602081019050610210565b50505050905090810190601f1680156102585780820380516001836020036101000a031916815260200191505b50995050505050505050505060405180910390f35b6103c76004803603606081101561028357600080fd5b81019080803590602001906401000000008111156102a057600080fd5b8201836020820111156102b257600080fd5b803590602001918460018302840111640100000000831117156102d457600080fd5b91908080601f016020809104026020016040519081016040528093929190818152602001838380828437600081840152601f19601f8201169050808301925050505050505091929192908035906020019064010000000081111561033757600080fd5b82018360208201111561034957600080fd5b8035906020019184600183028401116401000000008311171561036b57600080fd5b91908080601f016020809104026020016040519081016040528093929190818152602001838380828437600081840152601f19601f82011690508083019250505050505050919291929080359060200190929190505050610a4b565b005b6103f5600480360360208110156103df57600080fd5b8101908080359060200190929190505050610cc0565b604051808581526020018060200184815260200180602001838103835286818151815260200191508051906020019080838360005b8381101561044557808201518184015260208101905061042a565b50505050905090810190601f1680156104725780820380516001836020036101000a031916815260200191505b50838103825284818151815260200191508051906020019080838360005b838110156104ab578082015181840152602081019050610490565b50505050905090810190601f1680156104d85780820380516001836020036101000a031916815260200191505b50965050505050505060405180910390f35b61063a6004803603604081101561050057600080fd5b810190808035906020019064010000000081111561051d57600080fd5b82018360208201111561052f57600080fd5b8035906020019184600183028401116401000000008311171561055157600080fd5b91908080601f016020809104026020016040519081016040528093929190818152602001838380828437600081840152601f19601f820116905080830192505050505050509192919290803590602001906401000000008111156105b457600080fd5b8201836020820111156105c657600080fd5b803590602001918460018302840111640100000000831117156105e857600080fd5b91908080601f016020809104026020016040519081016040528093929190818152602001838380828437600081840152601f19601f820116905080830192505050505050509192919290505050610e20565b005b610644610f36565b6040518082815260200191505060405180910390f35b61069c6004803603602081101561067057600080fd5b81019080803573ffffffffffffffffffffffffffffffffffffffff169060200190929190505050610f3c565b604051808215151515815260200191505060405180910390f35b600260003373ffffffffffffffffffffffffffffffffffffffff1673ffffffffffffffffffffffffffffffffffffffff16815260200190815260200160002060009054906101000a900460ff1615610759576040517f08c379a000000000000000000000000000000000000000000000000000000000815260040180806020018281038252602d815260200180611002602d913960400191505060405180910390fd5b60008111801561076b57506004548111155b6107c0576040517f08c379a000000000000000000000000000000000000000000000000000000000815260040180806020018281038252603181526020018061102f6031913960400191505060405180910390fd5b6001600260003373ffffffffffffffffffffffffffffffffffffffff1673ffffffffffffffffffffffffffffffffffffffff16815260200190815260200160002060006101000a81548160ff021916908315150217905550600360008281526020019081526020016000206003016000815480929190600101919050555050565b60045481565b6003602052806000526040600020600091509050806000015490806001018054600181600116156101000203166002900480601f0160208091040260200160405190810160405280929190818152602001828054600181600116156101000203166002900480156108f95780601f106108ce576101008083540402835291602001916108f9565b820191906000526020600020905b8154815290600101906020018083116108dc57829003601f168201915b505050505090806002018054600181600116156101000203166002900480601f0160208091040260200160405190810160405280929190818152602001828054600181600116156101000203166002900480156109975780601f1061096c57610100808354040283529160200191610997565b820191906000526020600020905b81548152906001019060200180831161097a57829003601f168201915b505050505090806003015490806004018054600181600116156101000203166002900480601f016020809104026020016040519081016040528092919081815260200182805460018160011615610100020316600290048015610a3b5780601f10610a1057610100808354040283529160200191610a3b565b820191906000526020600020905b815481529060010190602001808311610a1e57829003601f168201915b5050505050908060050154905086565b6004600081548092919060010191905055506040518060c001604052806004548152602001848152602001838152602001600081526020016040518060400160405280600781526020017f52756e6e696e6700000000000000000000000000000000000000000000000000815250815260200182815250600360006004548152602001908152602001600020600082015181600001556020820151816001019080519060200190610afd929190610f5c565b506040820151816002019080519060200190610b1a929190610f5c565b50606082015181600301556080820151816004019080519060200190610b41929190610f5c565b5060a08201518160050155905050600080828152602001908152602001600020600201600081548092919060010191905055507fee2b147ff262d63daa02b764754e32ce0ecd6d4ee6fdf23f2075fb7ece8670fa6004548484336040518085815260200180602001806020018473ffffffffffffffffffffffffffffffffffffffff1673ffffffffffffffffffffffffffffffffffffffff168152602001838103835286818151815260200191508051906020019080838360005b83811015610c17578082015181840152602081019050610bfc565b50505050905090810190601f168015610c445780820380516001836020036101000a031916815260200191505b50838103825285818151815260200191508051906020019080838360005b83811015610c7d578082015181840152602081019050610c62565b50505050905090810190601f168015610caa5780820380516001836020036101000a031916815260200191505b50965050505050505060405180910390a1505050565b6000602052806000526040600020600091509050806000015490806001018054600181600116156101000203166002900480601f016020809104026020016040519081016040528092919081815260200182805460018160011615610100020316600290048015610d725780601f10610d4757610100808354040283529160200191610d72565b820191906000526020600020905b815481529060010190602001808311610d5557829003601f168201915b505050505090806002015490806003018054600181600116156101000203166002900480601f016020809104026020016040519081016040528092919081815260200182805460018160011615610100020316600290048015610e165780601f10610deb57610100808354040283529160200191610e16565b820191906000526020600020905b815481529060010190602001808311610df957829003601f168201915b5050505050905084565b60016000815480929190600101919050555060405180608001604052806001548152602001838152602001600081526020016040518060400160405280600481526020017f4f70656e000000000000000000000000000000000000000000000000000000008152508152506000806001548152602001908152602001600020600082015181600001556020820151816001019080519060200190610ec5929190610f5c565b50604082015181600201556060820151816003019080519060200190610eec929190610f5c565b50905050610f32816040518060400160405280600281526020017f4e41000000000000000000000000000000000000000000000000000000000000815250600154610a4b565b5050565b60015481565b60026020528060005260406000206000915054906101000a900460ff1681565b828054600181600116156101000203166002900490600052602060002090601f016020900481019282601f10610f9d57805160ff1916838001178555610fcb565b82800160010185558215610fcb579182015b82811115610fca578251825591602001919060010190610faf565b5b509050610fd89190610fdc565b5090565b610ffe91905b80821115610ffa576000816000905550600101610fe2565b5090565b9056fe596f75206861766520616c72656164792063617374206120766f746520696e207468697320656c656374696f6e5468652063616e64696461746520796f7520747269656420746f20766f746520666f7220646f65736e2774206578697374a265627a7a723158209e08994b2578756ba73c745eb389d31000a3dbbf0ebf37cebb096d64686ab8f864736f6c63430005100032",
  "source": "pragma solidity ^0.5.0;\r\n\r\ncontract Election {\r\n    // Model a Candidate\r\n    struct Candidate {\r\n        uint id;\r\n        string name;\r\n        string position;\r\n        uint voteCount;\r\n        string status;\r\n        uint electionId;\r\n        // uint election_id;\r\n        // string election_status; // open or closed\r\n        // string election_result; // elected or not\r\n    }\r\n\r\n    event CandidateAdded(\r\n        uint id,\r\n        string name,\r\n        string position,\r\n        address payable author\r\n    );\r\n\r\n    struct Elections {\r\n        uint electionId;\r\n        string name;\r\n        uint totalCandidates;\r\n        string electionStatus;\r\n    }\r\n\r\n    // Elections mapping\r\n    mapping(uint => Elections) public elections;\r\n    uint public electionCount;\r\n\r\n    // Voters mapping (who has voted)\r\n    mapping(address => bool) public voters;\r\n\r\n    // Candidate mapping\r\n    mapping(uint => Candidate) public candidates;\r\n    uint public candidatesCount;\r\n\r\n    // Constructor\r\n    constructor() public {\r\n        addElection(\"Ciaran's Election\", \"Ciaran Palmer\");\r\n        addElection(\"Engineering Society\", \"Paul Smith\");\r\n        //addElection(\"Test Election\", \"Phil Swift\");\r\n\r\n        addCandidate(\"John Todd\", \"NA\", 1);\r\n        addCandidate(\"Rebecca Wilson\", \"NA\", 1);\r\n        addCandidate(\"Jen Keogh\", \"NA\", 1);\r\n\r\n        addCandidate(\"Will Parker\", \"NA\", 2);\r\n        addCandidate(\"Jack Black\", \"NA\", 2);\r\n    }\r\n\r\n    function addElection(string memory _name, string memory _firstCandidate) public {\r\n        electionCount++;\r\n        elections[electionCount] = Elections(electionCount, _name, 0, \"Open\");\r\n        addCandidate(_firstCandidate, \"NA\", electionCount);\r\n    }\r\n\r\n    function addCandidate(string memory _name, string memory _position, uint _election) public {\r\n        candidatesCount ++;\r\n        candidates[candidatesCount] = Candidate(candidatesCount, _name, _position, 0, \"Running\", _election);\r\n        elections[_election].totalCandidates++;\r\n        emit CandidateAdded(candidatesCount, _name, _position, msg.sender);\r\n    }\r\n\r\n    function vote(uint _candidateId) public {\r\n        // Require that they haven't voted before\r\n        require(!voters[msg.sender], \"You have already cast a vote in this election\");\r\n\r\n        // Require a valid candidate to vote on\r\n        require(_candidateId > 0 && _candidateId <= candidatesCount, \"The candidate you tried to vote for doesn't exist\");\r\n\r\n        // record that voter has voted\r\n        voters[msg.sender] = true;\r\n\r\n        // update candidate vote count\r\n        candidates[_candidateId].voteCount++;\r\n    }\r\n}",
  "sourcePath": "C:\\Users\\ciara\\OneDrive\\Desktop\\2020-ca326-tcoynemorgan-DecentralizedVotingApp-master\\code\\dapp_testing\\src\\contracts\\Election.sol",
  "compiler": {
    "name": "solc",
    "version": "0.5.16+commit.9c3226ce.Emscripten.clang"
  },
  "schemaVersion": "3.0.23",
  "updatedAt": "2020-02-17T19:12:25.609Z",
  "networkType": "ethereum",
  "devdoc": {
    "methods": {}
  },
  "userdoc": {
    "methods": {}
  }
}