{
  "contractName": "Election",
  "abi": [
    {
      "inputs": [],
      "payable": false,
      "stateMutability": "nonpayable",
      "type": "constructor"
    },
    {
      "anonymous": false,
      "inputs": [
        {
          "indexed": false,
          "internalType": "uint256",
          "name": "id",
          "type": "uint256"
        },
        {
          "indexed": false,
          "internalType": "string",
          "name": "name",
          "type": "string"
        },
        {
          "indexed": false,
          "internalType": "string",
          "name": "position",
          "type": "string"
        },
        {
          "indexed": false,
          "internalType": "address payable",
          "name": "author",
          "type": "address"
        }
      ],
      "name": "CandidateAdded",
      "type": "event"
    },
    {
      "constant": true,
      "inputs": [
        {
          "internalType": "uint256",
          "name": "",
          "type": "uint256"
        }
      ],
      "name": "admins",
      "outputs": [
        {
          "internalType": "address",
          "name": "",
          "type": "address"
        }
      ],
      "payable": false,
      "stateMutability": "view",
      "type": "function"
    },
    {
      "constant": true,
      "inputs": [
        {
          "internalType": "uint256",
          "name": "",
          "type": "uint256"
        }
      ],
      "name": "candidates",
      "outputs": [
        {
          "internalType": "uint256",
          "name": "id",
          "type": "uint256"
        },
        {
          "internalType": "string",
          "name": "name",
          "type": "string"
        },
        {
          "internalType": "string",
          "name": "position",
          "type": "string"
        },
        {
          "internalType": "uint256",
          "name": "voteCount",
          "type": "uint256"
        },
        {
          "internalType": "string",
          "name": "status",
          "type": "string"
        },
        {
          "internalType": "uint256",
          "name": "electionId",
          "type": "uint256"
        }
      ],
      "payable": false,
      "stateMutability": "view",
      "type": "function"
    },
    {
      "constant": true,
      "inputs": [],
      "name": "candidatesCount",
      "outputs": [
        {
          "internalType": "uint256",
          "name": "",
          "type": "uint256"
        }
      ],
      "payable": false,
      "stateMutability": "view",
      "type": "function"
    },
    {
      "constant": true,
      "inputs": [],
      "name": "electionCount",
      "outputs": [
        {
          "internalType": "uint256",
          "name": "",
          "type": "uint256"
        }
      ],
      "payable": false,
      "stateMutability": "view",
      "type": "function"
    },
    {
      "constant": true,
      "inputs": [
        {
          "internalType": "uint256",
          "name": "",
          "type": "uint256"
        }
      ],
      "name": "elections",
      "outputs": [
        {
          "internalType": "uint256",
          "name": "electionId",
          "type": "uint256"
        },
        {
          "internalType": "string",
          "name": "name",
          "type": "string"
        },
        {
          "internalType": "uint256",
          "name": "totalCandidates",
          "type": "uint256"
        },
        {
          "internalType": "string",
          "name": "electionStatus",
          "type": "string"
        }
      ],
      "payable": false,
      "stateMutability": "view",
      "type": "function"
    },
    {
      "constant": false,
      "inputs": [
        {
          "internalType": "string",
          "name": "_name",
          "type": "string"
        }
      ],
      "name": "addElection",
      "outputs": [],
      "payable": false,
      "stateMutability": "nonpayable",
      "type": "function"
    },
    {
      "constant": false,
      "inputs": [
        {
          "internalType": "string",
          "name": "_name",
          "type": "string"
        },
        {
          "internalType": "string",
          "name": "_position",
          "type": "string"
        },
        {
          "internalType": "uint256",
          "name": "_electionId",
          "type": "uint256"
        }
      ],
      "name": "addCandidate",
      "outputs": [],
      "payable": false,
      "stateMutability": "nonpayable",
      "type": "function"
    },
    {
      "constant": false,
      "inputs": [
        {
          "internalType": "uint256",
          "name": "_candidateId",
          "type": "uint256"
        },
        {
          "internalType": "uint256",
          "name": "_electionId",
          "type": "uint256"
        }
      ],
      "name": "vote",
      "outputs": [],
      "payable": false,
      "stateMutability": "nonpayable",
      "type": "function"
    }
  ],
  "bytecode": "0x60806040523480156200001157600080fd5b50620000586040518060400160405280601181526020017f43696172616e277320456c656374696f6e0000000000000000000000000000008152506200031a60201b60201c565b6200009e6040518060400160405280601381526020017f456e67696e656572696e6720536f6369657479000000000000000000000000008152506200031a60201b60201c565b6200011c6040518060400160405280600981526020017f4a6f686e20546f646400000000000000000000000000000000000000000000008152506040518060400160405280600281526020017f4e4100000000000000000000000000000000000000000000000000000000000081525060016200044560201b60201c565b6200019a6040518060400160405280600e81526020017f526562656363612057696c736f6e0000000000000000000000000000000000008152506040518060400160405280600281526020017f4e4100000000000000000000000000000000000000000000000000000000000081525060016200044560201b60201c565b620002186040518060400160405280600981526020017f4a656e204b656f676800000000000000000000000000000000000000000000008152506040518060400160405280600281526020017f4e4100000000000000000000000000000000000000000000000000000000000081525060016200044560201b60201c565b620002966040518060400160405280600b81526020017f57696c6c205061726b65720000000000000000000000000000000000000000008152506040518060400160405280600281526020017f4e4100000000000000000000000000000000000000000000000000000000000081525060026200044560201b60201c565b620003146040518060400160405280600a81526020017f4a61636b20426c61636b000000000000000000000000000000000000000000008152506040518060400160405280600281526020017f4e4100000000000000000000000000000000000000000000000000000000000081525060026200044560201b60201c565b6200082e565b60016000815480929190600101919050555060405180608001604052806001548152602001828152602001600081526020016040518060400160405280600481526020017f4f70656e000000000000000000000000000000000000000000000000000000008152508152506000806001548152602001908152602001600020600082015181600001556020820151816001019080519060200190620003c19291906200077f565b50604082015181600201556060820151816003019080519060200190620003ea9291906200077f565b509050503360026000600154815260200190815260200160002060006101000a81548173ffffffffffffffffffffffffffffffffffffffff021916908373ffffffffffffffffffffffffffffffffffffffff16021790555050565b3373ffffffffffffffffffffffffffffffffffffffff166002600083815260200190815260200160002060009054906101000a900473ffffffffffffffffffffffffffffffffffffffff1673ffffffffffffffffffffffffffffffffffffffff1614620004fe576040517f08c379a000000000000000000000000000000000000000000000000000000000815260040180806020018281038252603f81526020018062001994603f913960400191505060405180910390fd5b6004600081548092919060010191905055506040518060c001604052806004548152602001848152602001838152602001600081526020016040518060400160405280600781526020017f52756e6e696e6700000000000000000000000000000000000000000000000000815250815260200182815250600360006004548152602001908152602001600020600082015181600001556020820151816001019080519060200190620005b29291906200077f565b506040820151816002019080519060200190620005d19291906200077f565b50606082015181600301556080820151816004019080519060200190620005fa9291906200077f565b5060a08201518160050155905050600080828152602001908152602001600020600201600081548092919060010191905055507fee2b147ff262d63daa02b764754e32ce0ecd6d4ee6fdf23f2075fb7ece8670fa6004548484336040518085815260200180602001806020018473ffffffffffffffffffffffffffffffffffffffff1673ffffffffffffffffffffffffffffffffffffffff168152602001838103835286818151815260200191508051906020019080838360005b83811015620006d2578082015181840152602081019050620006b5565b50505050905090810190601f168015620007005780820380516001836020036101000a031916815260200191505b50838103825285818151815260200191508051906020019080838360005b838110156200073b5780820151818401526020810190506200071e565b50505050905090810190601f168015620007695780820380516001836020036101000a031916815260200191505b50965050505050505060405180910390a1505050565b828054600181600116156101000203166002900490600052602060002090601f016020900481019282601f10620007c257805160ff1916838001178555620007f3565b82800160010185558215620007f3579182015b82811115620007f2578251825591602001919060010190620007d5565b5b50905062000802919062000806565b5090565b6200082b91905b80821115620008275760008160009055506001016200080d565b5090565b90565b611156806200083e6000396000f3fe608060405234801561001057600080fd5b50600436106100885760003560e01c80633ca09fdf1161005b5780633ca09fdf146103685780635e6fef01146104c4578063997d2830146105e5578063b384abef1461060357610088565b806314bfd6d01461008d5780632d35a8a2146100fb5780633477ee2e14610119578063358b9d97146102ad575b600080fd5b6100b9600480360360208110156100a357600080fd5b810190808035906020019092919050505061063b565b604051808273ffffffffffffffffffffffffffffffffffffffff1673ffffffffffffffffffffffffffffffffffffffff16815260200191505060405180910390f35b61010361066e565b6040518082815260200191505060405180910390f35b6101456004803603602081101561012f57600080fd5b8101908080359060200190929190505050610674565b60405180878152602001806020018060200186815260200180602001858152602001848103845289818151815260200191508051906020019080838360005b8381101561019f578082015181840152602081019050610184565b50505050905090810190601f1680156101cc5780820380516001836020036101000a031916815260200191505b50848103835288818151815260200191508051906020019080838360005b838110156102055780820151818401526020810190506101ea565b50505050905090810190601f1680156102325780820380516001836020036101000a031916815260200191505b50848103825286818151815260200191508051906020019080838360005b8381101561026b578082015181840152602081019050610250565b50505050905090810190601f1680156102985780820380516001836020036101000a031916815260200191505b50995050505050505050505060405180910390f35b610366600480360360208110156102c357600080fd5b81019080803590602001906401000000008111156102e057600080fd5b8201836020820111156102f257600080fd5b8035906020019184600183028401116401000000008311171561031457600080fd5b91908080601f016020809104026020016040519081016040528093929190818152602001838380828437600081840152601f19601f820116905080830192505050505050509192919290505050610878565b005b6104c26004803603606081101561037e57600080fd5b810190808035906020019064010000000081111561039b57600080fd5b8201836020820111156103ad57600080fd5b803590602001918460018302840111640100000000831117156103cf57600080fd5b91908080601f016020809104026020016040519081016040528093929190818152602001838380828437600081840152601f19601f8201169050808301925050505050505091929192908035906020019064010000000081111561043257600080fd5b82018360208201111561044457600080fd5b8035906020019184600183028401116401000000008311171561046657600080fd5b91908080601f016020809104026020016040519081016040528093929190818152602001838380828437600081840152601f19601f8201169050808301925050505050505091929192908035906020019092919050505061099f565b005b6104f0600480360360208110156104da57600080fd5b8101908080359060200190929190505050610ccb565b604051808581526020018060200184815260200180602001838103835286818151815260200191508051906020019080838360005b83811015610540578082015181840152602081019050610525565b50505050905090810190601f16801561056d5780820380516001836020036101000a031916815260200191505b50838103825284818151815260200191508051906020019080838360005b838110156105a657808201518184015260208101905061058b565b50505050905090810190601f1680156105d35780820380516001836020036101000a031916815260200191505b50965050505050505060405180910390f35b6105ed610e2b565b6040518082815260200191505060405180910390f35b6106396004803603604081101561061957600080fd5b810190808035906020019092919080359060200190929190505050610e31565b005b60026020528060005260406000206000915054906101000a900473ffffffffffffffffffffffffffffffffffffffff1681565b60045481565b6003602052806000526040600020600091509050806000015490806001018054600181600116156101000203166002900480601f0160208091040260200160405190810160405280929190818152602001828054600181600116156101000203166002900480156107265780601f106106fb57610100808354040283529160200191610726565b820191906000526020600020905b81548152906001019060200180831161070957829003601f168201915b505050505090806002018054600181600116156101000203166002900480601f0160208091040260200160405190810160405280929190818152602001828054600181600116156101000203166002900480156107c45780601f10610799576101008083540402835291602001916107c4565b820191906000526020600020905b8154815290600101906020018083116107a757829003601f168201915b505050505090806003015490806004018054600181600116156101000203166002900480601f0160208091040260200160405190810160405280929190818152602001828054600181600116156101000203166002900480156108685780601f1061083d57610100808354040283529160200191610868565b820191906000526020600020905b81548152906001019060200180831161084b57829003601f168201915b5050505050908060050154905086565b60016000815480929190600101919050555060405180608001604052806001548152602001828152602001600081526020016040518060400160405280600481526020017f4f70656e00000000000000000000000000000000000000000000000000000000815250815250600080600154815260200190815260200160002060008201518160000155602082015181600101908051906020019061091d929190610fe3565b50604082015181600201556060820151816003019080519060200190610944929190610fe3565b509050503360026000600154815260200190815260200160002060006101000a81548173ffffffffffffffffffffffffffffffffffffffff021916908373ffffffffffffffffffffffffffffffffffffffff16021790555050565b3373ffffffffffffffffffffffffffffffffffffffff166002600083815260200190815260200160002060009054906101000a900473ffffffffffffffffffffffffffffffffffffffff1673ffffffffffffffffffffffffffffffffffffffff1614610a56576040517f08c379a000000000000000000000000000000000000000000000000000000000815260040180806020018281038252603f8152602001806110e3603f913960400191505060405180910390fd5b6004600081548092919060010191905055506040518060c001604052806004548152602001848152602001838152602001600081526020016040518060400160405280600781526020017f52756e6e696e6700000000000000000000000000000000000000000000000000815250815260200182815250600360006004548152602001908152602001600020600082015181600001556020820151816001019080519060200190610b08929190610fe3565b506040820151816002019080519060200190610b25929190610fe3565b50606082015181600301556080820151816004019080519060200190610b4c929190610fe3565b5060a08201518160050155905050600080828152602001908152602001600020600201600081548092919060010191905055507fee2b147ff262d63daa02b764754e32ce0ecd6d4ee6fdf23f2075fb7ece8670fa6004548484336040518085815260200180602001806020018473ffffffffffffffffffffffffffffffffffffffff1673ffffffffffffffffffffffffffffffffffffffff168152602001838103835286818151815260200191508051906020019080838360005b83811015610c22578082015181840152602081019050610c07565b50505050905090810190601f168015610c4f5780820380516001836020036101000a031916815260200191505b50838103825285818151815260200191508051906020019080838360005b83811015610c88578082015181840152602081019050610c6d565b50505050905090810190601f168015610cb55780820380516001836020036101000a031916815260200191505b50965050505050505060405180910390a1505050565b6000602052806000526040600020600091509050806000015490806001018054600181600116156101000203166002900480601f016020809104026020016040519081016040528092919081815260200182805460018160011615610100020316600290048015610d7d5780601f10610d5257610100808354040283529160200191610d7d565b820191906000526020600020905b815481529060010190602001808311610d6057829003601f168201915b505050505090806002015490806003018054600181600116156101000203166002900480601f016020809104026020016040519081016040528092919081815260200182805460018160011615610100020316600290048015610e215780601f10610df657610100808354040283529160200191610e21565b820191906000526020600020905b815481529060010190602001808311610e0457829003601f168201915b5050505050905084565b60015481565b60008082815260200190815260200160002060040160003373ffffffffffffffffffffffffffffffffffffffff1673ffffffffffffffffffffffffffffffffffffffff16815260200190815260200160002060009054906101000a900460ff1615610ee7576040517f08c379a00000000000000000000000000000000000000000000000000000000081526004018080602001828103825260288152602001806110bb6028913960400191505060405180910390fd5b600082118015610ef957506004548211155b610f4e576040517f08c379a00000000000000000000000000000000000000000000000000000000081526004018080602001828103825260328152602001806110896032913960400191505060405180910390fd5b6003600083815260200190815260200160002060030160008154809291906001019190505550600160008083815260200190815260200160002060040160003373ffffffffffffffffffffffffffffffffffffffff1673ffffffffffffffffffffffffffffffffffffffff16815260200190815260200160002060006101000a81548160ff0219169083151502179055505050565b828054600181600116156101000203166002900490600052602060002090601f016020900481019282601f1061102457805160ff1916838001178555611052565b82800160010185558215611052579182015b82811115611051578251825591602001919060010190611036565b5b50905061105f9190611063565b5090565b61108591905b80821115611081576000816000905550600101611069565b5090565b9056fe5468652063616e64696461746520796f7520747269656420746f20766f746520666f7220646f65736e27742065786973742e596f75206861766520616c726561647920766f74656420696e207468697320656c656374696f6e2e596f7520646f206e6f742068617665207065726d697373696f6e7320746f206164642063616e6469646174657320746f207468697320656c656374696f6e2ea265627a7a72315820ca3210c6fc144dff38e863acd9759fc3b1ccdd16cabf8e2eef45c7d461d5a5d764736f6c63430005100032596f7520646f206e6f742068617665207065726d697373696f6e7320746f206164642063616e6469646174657320746f207468697320656c656374696f6e2e",
  "source": "pragma solidity ^0.5.0;\r\n\r\ncontract Election {\r\n    // Model a Candidate\r\n    struct Candidate {\r\n        uint id;\r\n        string name;\r\n        string position;\r\n        uint voteCount;\r\n        string status;\r\n        uint electionId;\r\n        // uint election_id;\r\n        // string election_status; // open or closed\r\n        // string election_result; // elected or not\r\n    }\r\n\r\n    event CandidateAdded(\r\n        uint id,\r\n        string name,\r\n        string position,\r\n        address payable author\r\n    );\r\n\r\n    struct Elections {\r\n        uint electionId;\r\n        string name;\r\n        uint totalCandidates;\r\n        string electionStatus;\r\n        mapping(address => bool) voters;\r\n\r\n    }\r\n\r\n    // Elections mapping\r\n    mapping(uint => Elections) public elections;\r\n    uint public electionCount;\r\n\r\n    // Election Admins\r\n    mapping(uint => address) public admins;\r\n\r\n    // Candidate mapping\r\n    mapping(uint => Candidate) public candidates;\r\n    uint public candidatesCount;\r\n\r\n    // Constructor\r\n    constructor() public {\r\n        addElection(\"Ciaran's Election\");\r\n        addElection(\"Engineering Society\");\r\n\r\n        addCandidate(\"John Todd\", \"NA\", 1);\r\n        addCandidate(\"Rebecca Wilson\", \"NA\", 1);\r\n        addCandidate(\"Jen Keogh\", \"NA\", 1);\r\n\r\n        addCandidate(\"Will Parker\", \"NA\", 2);\r\n        addCandidate(\"Jack Black\", \"NA\", 2);\r\n    }\r\n\r\n    function addElection(string memory _name) public {\r\n        electionCount++;\r\n        elections[electionCount] = Elections(electionCount, _name, 0, \"Open\");\r\n        admins[electionCount] = msg.sender;\r\n    }\r\n\r\n    function addCandidate(string memory _name, string memory _position, uint _electionId) public {\r\n        require(admins[_electionId] == msg.sender, \"You do not have permissions to add candidates to this election.\");\r\n\r\n        candidatesCount ++;\r\n        candidates[candidatesCount] = Candidate(candidatesCount, _name, _position, 0, \"Running\", _electionId);\r\n        elections[_electionId].totalCandidates++;\r\n        emit CandidateAdded(candidatesCount, _name, _position, msg.sender);\r\n    }\r\n\r\n    function vote(uint _candidateId, uint _electionId) public {\r\n        // Require that they haven't voted before\r\n        //require(!voters[msg.sender], \"You have already cast a vote in this election\");\r\n        require(!elections[_electionId].voters[msg.sender], \"You have already voted in this election.\");\r\n\r\n        // Require a valid candidate to vote on\r\n        require(_candidateId > 0 && _candidateId <= candidatesCount, \"The candidate you tried to vote for doesn't exist.\");\r\n\r\n        // record that voter has voted\r\n        //voters[msg.sender] = true;\r\n        // update candidate vote count\r\n        candidates[_candidateId].voteCount++;\r\n        elections[_electionId].voters[msg.sender] = true;\r\n    }\r\n}",
  "sourcePath": "C:\\Users\\ciara\\DCU Modules\\Devote 3rd Year Project\\2020-ca326-tcoynemorgan-DecentralizedVotingApp\\code\\dapp_testing\\src\\contracts\\Election.sol",
  "compiler": {
    "name": "solc",
    "version": "0.5.16+commit.9c3226ce.Emscripten.clang"
  },
  "schemaVersion": "3.0.23",
  "updatedAt": "2020-02-19T18:41:44.926Z",
  "networkType": "ethereum",
  "devdoc": {
    "methods": {}
  },
  "userdoc": {
    "methods": {}
  }
}