{
  "contractName": "Election",
  "abi": [
    {
      "inputs": [],
      "payable": false,
      "stateMutability": "nonpayable",
      "type": "constructor"
    },
    {
      "anonymous": false,
      "inputs": [
        {
          "indexed": false,
          "internalType": "uint256",
          "name": "id",
          "type": "uint256"
        },
        {
          "indexed": false,
          "internalType": "string",
          "name": "name",
          "type": "string"
        },
        {
          "indexed": false,
          "internalType": "string",
          "name": "position",
          "type": "string"
        },
        {
          "indexed": false,
          "internalType": "address payable",
          "name": "author",
          "type": "address"
        }
      ],
      "name": "CandidateAdded",
      "type": "event"
    },
    {
      "constant": true,
      "inputs": [
        {
          "internalType": "uint256",
          "name": "",
          "type": "uint256"
        }
      ],
      "name": "candidates",
      "outputs": [
        {
          "internalType": "uint256",
          "name": "id",
          "type": "uint256"
        },
        {
          "internalType": "string",
          "name": "name",
          "type": "string"
        },
        {
          "internalType": "string",
          "name": "position",
          "type": "string"
        },
        {
          "internalType": "uint256",
          "name": "voteCount",
          "type": "uint256"
        },
        {
          "internalType": "string",
          "name": "status",
          "type": "string"
        },
        {
          "internalType": "uint256",
          "name": "electionId",
          "type": "uint256"
        }
      ],
      "payable": false,
      "stateMutability": "view",
      "type": "function"
    },
    {
      "constant": true,
      "inputs": [],
      "name": "candidatesCount",
      "outputs": [
        {
          "internalType": "uint256",
          "name": "",
          "type": "uint256"
        }
      ],
      "payable": false,
      "stateMutability": "view",
      "type": "function"
    },
    {
      "constant": true,
      "inputs": [],
      "name": "electionCount",
      "outputs": [
        {
          "internalType": "uint256",
          "name": "",
          "type": "uint256"
        }
      ],
      "payable": false,
      "stateMutability": "view",
      "type": "function"
    },
    {
      "constant": true,
      "inputs": [
        {
          "internalType": "uint256",
          "name": "",
          "type": "uint256"
        }
      ],
      "name": "elections",
      "outputs": [
        {
          "internalType": "uint256",
          "name": "electionId",
          "type": "uint256"
        },
        {
          "internalType": "string",
          "name": "name",
          "type": "string"
        },
        {
          "internalType": "uint256",
          "name": "totalCandidates",
          "type": "uint256"
        },
        {
          "internalType": "string",
          "name": "electionStatus",
          "type": "string"
        },
        {
          "internalType": "bool",
          "name": "active",
          "type": "bool"
        },
        {
          "internalType": "address",
          "name": "admin",
          "type": "address"
        }
      ],
      "payable": false,
      "stateMutability": "view",
      "type": "function"
    },
    {
      "constant": false,
      "inputs": [
        {
          "internalType": "string",
          "name": "_name",
          "type": "string"
        }
      ],
      "name": "addElection",
      "outputs": [],
      "payable": false,
      "stateMutability": "nonpayable",
      "type": "function"
    },
    {
      "constant": false,
      "inputs": [
        {
          "internalType": "string",
          "name": "_name",
          "type": "string"
        },
        {
          "internalType": "uint256",
          "name": "_electionId",
          "type": "uint256"
        }
      ],
      "name": "editElectionName",
      "outputs": [],
      "payable": false,
      "stateMutability": "nonpayable",
      "type": "function"
    },
    {
      "constant": false,
      "inputs": [
        {
          "internalType": "string",
          "name": "_name",
          "type": "string"
        },
        {
          "internalType": "string",
          "name": "_position",
          "type": "string"
        },
        {
          "internalType": "uint256",
          "name": "_electionId",
          "type": "uint256"
        }
      ],
      "name": "addCandidate",
      "outputs": [],
      "payable": false,
      "stateMutability": "nonpayable",
      "type": "function"
    },
    {
      "constant": false,
      "inputs": [
        {
          "internalType": "uint256",
          "name": "_candidateId",
          "type": "uint256"
        }
      ],
      "name": "deleteCandidate",
      "outputs": [],
      "payable": false,
      "stateMutability": "nonpayable",
      "type": "function"
    },
    {
      "constant": false,
      "inputs": [
        {
          "internalType": "uint256",
          "name": "_candidateId",
          "type": "uint256"
        },
        {
          "internalType": "uint256",
          "name": "_electionId",
          "type": "uint256"
        }
      ],
      "name": "vote",
      "outputs": [],
      "payable": false,
      "stateMutability": "nonpayable",
      "type": "function"
    }
  ],
  "bytecode": "0x60806040523480156200001157600080fd5b50620000586040518060400160405280600f81526020017f5465737420456c656374696f6e203100000000000000000000000000000000008152506200031a60201b60201c565b6200009e6040518060400160405280600f81526020017f5465737420456c656374696f6e203200000000000000000000000000000000008152506200031a60201b60201c565b6200011c6040518060400160405280601081526020017f546573742043616e6469646174652031000000000000000000000000000000008152506040518060400160405280600281526020017f4e4100000000000000000000000000000000000000000000000000000000000081525060016200047d60201b60201c565b6200019a6040518060400160405280601081526020017f546573742043616e6469646174652032000000000000000000000000000000008152506040518060400160405280600281526020017f4e4100000000000000000000000000000000000000000000000000000000000081525060016200047d60201b60201c565b620002186040518060400160405280601081526020017f546573742043616e6469646174652033000000000000000000000000000000008152506040518060400160405280600281526020017f4e4100000000000000000000000000000000000000000000000000000000000081525060016200047d60201b60201c565b620002966040518060400160405280601081526020017f546573742043616e6469646174652034000000000000000000000000000000008152506040518060400160405280600281526020017f4e4100000000000000000000000000000000000000000000000000000000000081525060026200047d60201b60201c565b620003146040518060400160405280601081526020017f546573742043616e6469646174652035000000000000000000000000000000008152506040518060400160405280600281526020017f4e4100000000000000000000000000000000000000000000000000000000000081525060026200047d60201b60201c565b62000868565b6001600081548092919060010191905055506040518060c001604052806001548152602001828152602001600081526020016040518060400160405280600e81526020017f4177616974696e6720537461727400000000000000000000000000000000000081525081526020016000151581526020013373ffffffffffffffffffffffffffffffffffffffff168152506000806001548152602001908152602001600020600082015181600001556020820151816001019080519060200190620003e6929190620007b9565b506040820151816002015560608201518160030190805190602001906200040f929190620007b9565b5060808201518160040160006101000a81548160ff02191690831515021790555060a08201518160060160006101000a81548173ffffffffffffffffffffffffffffffffffffffff021916908373ffffffffffffffffffffffffffffffffffffffff16021790555090505050565b3373ffffffffffffffffffffffffffffffffffffffff1660008083815260200190815260200160002060060160009054906101000a900473ffffffffffffffffffffffffffffffffffffffff1673ffffffffffffffffffffffffffffffffffffffff161462000538576040517f08c379a000000000000000000000000000000000000000000000000000000000815260040180806020018281038252603f81526020018062001e6e603f913960400191505060405180910390fd5b6003600081548092919060010191905055506040518060c001604052806003548152602001848152602001838152602001600081526020016040518060400160405280600781526020017f52756e6e696e6700000000000000000000000000000000000000000000000000815250815260200182815250600260006003548152602001908152602001600020600082015181600001556020820151816001019080519060200190620005ec929190620007b9565b5060408201518160020190805190602001906200060b929190620007b9565b5060608201518160030155608082015181600401908051906020019062000634929190620007b9565b5060a08201518160050155905050600080828152602001908152602001600020600201600081548092919060010191905055507fee2b147ff262d63daa02b764754e32ce0ecd6d4ee6fdf23f2075fb7ece8670fa6003548484336040518085815260200180602001806020018473ffffffffffffffffffffffffffffffffffffffff1673ffffffffffffffffffffffffffffffffffffffff168152602001838103835286818151815260200191508051906020019080838360005b838110156200070c578082015181840152602081019050620006ef565b50505050905090810190601f1680156200073a5780820380516001836020036101000a031916815260200191505b50838103825285818151815260200191508051906020019080838360005b838110156200077557808201518184015260208101905062000758565b50505050905090810190601f168015620007a35780820380516001836020036101000a031916815260200191505b50965050505050505060405180910390a1505050565b828054600181600116156101000203166002900490600052602060002090601f016020900481019282601f10620007fc57805160ff19168380011785556200082d565b828001600101855582156200082d579182015b828111156200082c5782518255916020019190600101906200080f565b5b5090506200083c919062000840565b5090565b6200086591905b808211156200086157600081600090555060010162000847565b5090565b90565b6115f680620008786000396000f3fe608060405234801561001057600080fd5b50600436106100935760003560e01c80633ca09fdf116100665780633ca09fdf146103335780635e6fef011461048f578063997d2830146105ee578063b384abef1461060c578063fd2d76061461064457610093565b80631e620cd4146100985780632d35a8a2146100c65780633477ee2e146100e4578063358b9d9714610278575b600080fd5b6100c4600480360360208110156100ae57600080fd5b8101908080359060200190929190505050610709565b005b6100ce610888565b6040518082815260200191505060405180910390f35b610110600480360360208110156100fa57600080fd5b810190808035906020019092919050505061088e565b60405180878152602001806020018060200186815260200180602001858152602001848103845289818151815260200191508051906020019080838360005b8381101561016a57808201518184015260208101905061014f565b50505050905090810190601f1680156101975780820380516001836020036101000a031916815260200191505b50848103835288818151815260200191508051906020019080838360005b838110156101d05780820151818401526020810190506101b5565b50505050905090810190601f1680156101fd5780820380516001836020036101000a031916815260200191505b50848103825286818151815260200191508051906020019080838360005b8381101561023657808201518184015260208101905061021b565b50505050905090810190601f1680156102635780820380516001836020036101000a031916815260200191505b50995050505050505050505060405180910390f35b6103316004803603602081101561028e57600080fd5b81019080803590602001906401000000008111156102ab57600080fd5b8201836020820111156102bd57600080fd5b803590602001918460018302840111640100000000831117156102df57600080fd5b91908080601f016020809104026020016040519081016040528093929190818152602001838380828437600081840152601f19601f820116905080830192505050505050509192919290505050610a92565b005b61048d6004803603606081101561034957600080fd5b810190808035906020019064010000000081111561036657600080fd5b82018360208201111561037857600080fd5b8035906020019184600183028401116401000000008311171561039a57600080fd5b91908080601f016020809104026020016040519081016040528093929190818152602001838380828437600081840152601f19601f820116905080830192505050505050509192919290803590602001906401000000008111156103fd57600080fd5b82018360208201111561040f57600080fd5b8035906020019184600183028401116401000000008311171561043157600080fd5b91908080601f016020809104026020016040519081016040528093929190818152602001838380828437600081840152601f19601f82011690508083019250505050505050919291929080359060200190929190505050610bf1565b005b6104bb600480360360208110156104a557600080fd5b8101908080359060200190929190505050610f1f565b604051808781526020018060200186815260200180602001851515151581526020018473ffffffffffffffffffffffffffffffffffffffff1673ffffffffffffffffffffffffffffffffffffffff168152602001838103835288818151815260200191508051906020019080838360005b8381101561054757808201518184015260208101905061052c565b50505050905090810190601f1680156105745780820380516001836020036101000a031916815260200191505b50838103825286818151815260200191508051906020019080838360005b838110156105ad578082015181840152602081019050610592565b50505050905090810190601f1680156105da5780820380516001836020036101000a031916815260200191505b509850505050505050505060405180910390f35b6105f66110b8565b6040518082815260200191505060405180910390f35b6106426004803603604081101561062257600080fd5b8101908080359060200190929190803590602001909291905050506110be565b005b6107076004803603604081101561065a57600080fd5b810190808035906020019064010000000081111561067757600080fd5b82018360208201111561068957600080fd5b803590602001918460018302840111640100000000831117156106ab57600080fd5b91908080601f016020809104026020016040519081016040528093929190818152602001838380828437600081840152601f19601f82011690508083019250505050505050919291929080359060200190929190505050611270565b005b3373ffffffffffffffffffffffffffffffffffffffff166000806002600085815260200190815260200160002060050154815260200190815260200160002060060160009054906101000a900473ffffffffffffffffffffffffffffffffffffffff1673ffffffffffffffffffffffffffffffffffffffff16146107d8576040517f08c379a00000000000000000000000000000000000000000000000000000000081526004018080602001828103825260318152602001806114c56031913960400191505060405180910390fd5b600080600260008481526020019081526020016000206005015481526020019081526020016000206002016000815480929190600190039190505550600260008281526020019081526020016000206000808201600090556001820160006108409190611357565b6002820160006108509190611357565b60038201600090556004820160006108689190611357565b600582016000905550506003600081548092919060019003919050555050565b60035481565b6002602052806000526040600020600091509050806000015490806001018054600181600116156101000203166002900480601f0160208091040260200160405190810160405280929190818152602001828054600181600116156101000203166002900480156109405780601f1061091557610100808354040283529160200191610940565b820191906000526020600020905b81548152906001019060200180831161092357829003601f168201915b505050505090806002018054600181600116156101000203166002900480601f0160208091040260200160405190810160405280929190818152602001828054600181600116156101000203166002900480156109de5780601f106109b3576101008083540402835291602001916109de565b820191906000526020600020905b8154815290600101906020018083116109c157829003601f168201915b505050505090806003015490806004018054600181600116156101000203166002900480601f016020809104026020016040519081016040528092919081815260200182805460018160011615610100020316600290048015610a825780601f10610a5757610100808354040283529160200191610a82565b820191906000526020600020905b815481529060010190602001808311610a6557829003601f168201915b5050505050908060050154905086565b6001600081548092919060010191905055506040518060c001604052806001548152602001828152602001600081526020016040518060400160405280600e81526020017f4177616974696e6720537461727400000000000000000000000000000000000081525081526020016000151581526020013373ffffffffffffffffffffffffffffffffffffffff168152506000806001548152602001908152602001600020600082015181600001556020820151816001019080519060200190610b5c92919061139f565b50604082015181600201556060820151816003019080519060200190610b8392919061139f565b5060808201518160040160006101000a81548160ff02191690831515021790555060a08201518160060160006101000a81548173ffffffffffffffffffffffffffffffffffffffff021916908373ffffffffffffffffffffffffffffffffffffffff16021790555090505050565b3373ffffffffffffffffffffffffffffffffffffffff1660008083815260200190815260200160002060060160009054906101000a900473ffffffffffffffffffffffffffffffffffffffff1673ffffffffffffffffffffffffffffffffffffffff1614610caa576040517f08c379a000000000000000000000000000000000000000000000000000000000815260040180806020018281038252603f815260200180611550603f913960400191505060405180910390fd5b6003600081548092919060010191905055506040518060c001604052806003548152602001848152602001838152602001600081526020016040518060400160405280600781526020017f52756e6e696e6700000000000000000000000000000000000000000000000000815250815260200182815250600260006003548152602001908152602001600020600082015181600001556020820151816001019080519060200190610d5c92919061139f565b506040820151816002019080519060200190610d7992919061139f565b50606082015181600301556080820151816004019080519060200190610da092919061139f565b5060a08201518160050155905050600080828152602001908152602001600020600201600081548092919060010191905055507fee2b147ff262d63daa02b764754e32ce0ecd6d4ee6fdf23f2075fb7ece8670fa6003548484336040518085815260200180602001806020018473ffffffffffffffffffffffffffffffffffffffff1673ffffffffffffffffffffffffffffffffffffffff168152602001838103835286818151815260200191508051906020019080838360005b83811015610e76578082015181840152602081019050610e5b565b50505050905090810190601f168015610ea35780820380516001836020036101000a031916815260200191505b50838103825285818151815260200191508051906020019080838360005b83811015610edc578082015181840152602081019050610ec1565b50505050905090810190601f168015610f095780820380516001836020036101000a031916815260200191505b50965050505050505060405180910390a1505050565b6000602052806000526040600020600091509050806000015490806001018054600181600116156101000203166002900480601f016020809104026020016040519081016040528092919081815260200182805460018160011615610100020316600290048015610fd15780601f10610fa657610100808354040283529160200191610fd1565b820191906000526020600020905b815481529060010190602001808311610fb457829003601f168201915b505050505090806002015490806003018054600181600116156101000203166002900480601f0160208091040260200160405190810160405280929190818152602001828054600181600116156101000203166002900480156110755780601f1061104a57610100808354040283529160200191611075565b820191906000526020600020905b81548152906001019060200180831161105857829003601f168201915b5050505050908060040160009054906101000a900460ff16908060060160009054906101000a900473ffffffffffffffffffffffffffffffffffffffff16905086565b60015481565b60008082815260200190815260200160002060050160003373ffffffffffffffffffffffffffffffffffffffff1673ffffffffffffffffffffffffffffffffffffffff16815260200190815260200160002060009054906101000a900460ff1615611174576040517f08c379a00000000000000000000000000000000000000000000000000000000081526004018080602001828103825260288152602001806115286028913960400191505060405180910390fd5b60008211801561118657506003548211155b6111db576040517f08c379a00000000000000000000000000000000000000000000000000000000081526004018080602001828103825260328152602001806114f66032913960400191505060405180910390fd5b6002600083815260200190815260200160002060030160008154809291906001019190505550600160008083815260200190815260200160002060050160003373ffffffffffffffffffffffffffffffffffffffff1673ffffffffffffffffffffffffffffffffffffffff16815260200190815260200160002060006101000a81548160ff0219169083151502179055505050565b3373ffffffffffffffffffffffffffffffffffffffff1660008083815260200190815260200160002060060160009054906101000a900473ffffffffffffffffffffffffffffffffffffffff1673ffffffffffffffffffffffffffffffffffffffff1614611329576040517f08c379a000000000000000000000000000000000000000000000000000000000815260040180806020018281038252603381526020018061158f6033913960400191505060405180910390fd5b81600080838152602001908152602001600020600101908051906020019061135292919061141f565b505050565b50805460018160011615610100020316600290046000825580601f1061137d575061139c565b601f01602090049060005260206000209081019061139b919061149f565b5b50565b828054600181600116156101000203166002900490600052602060002090601f016020900481019282601f106113e057805160ff191683800117855561140e565b8280016001018555821561140e579182015b8281111561140d5782518255916020019190600101906113f2565b5b50905061141b919061149f565b5090565b828054600181600116156101000203166002900490600052602060002090601f016020900481019282601f1061146057805160ff191683800117855561148e565b8280016001018555821561148e579182015b8281111561148d578251825591602001919060010190611472565b5b50905061149b919061149f565b5090565b6114c191905b808211156114bd5760008160009055506001016114a5565b5090565b9056fe596f7520646f206e6f742068617665207065726d697373696f6e7320746f2064656c6574652063616e646964617465732e5468652063616e64696461746520796f7520747269656420746f20766f746520666f7220646f65736e27742065786973742e596f75206861766520616c726561647920766f74656420696e207468697320656c656374696f6e2e596f7520646f206e6f742068617665207065726d697373696f6e7320746f206164642063616e6469646174657320746f207468697320656c656374696f6e2e596f7520646f206e6f742068617665207065726d697373696f6e7320746f206368616e6765207468697320656c656374696f6ea265627a7a72315820eff9edc3e1cec9a542e07a8d5bc4a53343cd5328ffd078f3272b88515bc8e67264736f6c63430005100032596f7520646f206e6f742068617665207065726d697373696f6e7320746f206164642063616e6469646174657320746f207468697320656c656374696f6e2e",
  "source": "pragma solidity ^0.5.0;\r\n\r\ncontract Election {\r\n    // Model a Candidate\r\n    struct Candidate {\r\n        uint id;\r\n        string name;\r\n        string position;\r\n        uint voteCount;\r\n        string status;\r\n        uint electionId;\r\n        // uint election_id;\r\n        // string election_status; // open or closed\r\n        // string election_result; // elected or not\r\n    }\r\n\r\n    event CandidateAdded(\r\n        uint id,\r\n        string name,\r\n        string position,\r\n        address payable author\r\n    );\r\n\r\n    struct Elections {\r\n        uint electionId;\r\n        string name;\r\n        uint totalCandidates;\r\n        string electionStatus;\r\n        bool active;\r\n        mapping(address => bool) voters;\r\n        address admin;\r\n    }\r\n\r\n    // Elections mapping\r\n    mapping(uint => Elections) public elections;\r\n    uint public electionCount;\r\n\r\n    // Election Admins\r\n    // mapping(uint => address) public admins;\r\n\r\n    // Candidate mapping\r\n    mapping(uint => Candidate) public candidates;\r\n    uint public candidatesCount;\r\n\r\n    // Constructor\r\n    constructor() public {\r\n        addElection(\"Test Election 1\");\r\n        addElection(\"Test Election 2\");\r\n\r\n        addCandidate(\"Test Candidate 1\", \"NA\", 1);\r\n        addCandidate(\"Test Candidate 2\", \"NA\", 1);\r\n        addCandidate(\"Test Candidate 3\", \"NA\", 1);\r\n\r\n        addCandidate(\"Test Candidate 4\", \"NA\", 2);\r\n        addCandidate(\"Test Candidate 5\", \"NA\", 2);\r\n    }\r\n\r\n    function addElection(string memory _name) public {\r\n        electionCount++;\r\n        elections[electionCount] = Elections(electionCount, _name, 0, \"Awaiting Start\", false, msg.sender);\r\n        // admins[electionCount] = msg.sender;\r\n    }\r\n\r\n    function editElectionName(string memory _name, uint _electionId) public {\r\n        require(elections[_electionId].admin == msg.sender, \"You do not have permissions to change this election\");\r\n        elections[_electionId].name = _name;\r\n    }\r\n\r\n    function addCandidate(string memory _name, string memory _position, uint _electionId) public {\r\n        require(elections[_electionId].admin == msg.sender, \"You do not have permissions to add candidates to this election.\");\r\n\r\n        candidatesCount ++;\r\n        candidates[candidatesCount] = Candidate(candidatesCount, _name, _position, 0, \"Running\", _electionId);\r\n        elections[_electionId].totalCandidates++;\r\n        emit CandidateAdded(candidatesCount, _name, _position, msg.sender);\r\n    }\r\n\r\n    function deleteCandidate(uint _candidateId) public {\r\n        require(elections[candidates[_candidateId].electionId].admin == msg.sender, \"You do not have permissions to delete candidates.\");\r\n        elections[candidates[_candidateId].electionId].totalCandidates --;\r\n        delete candidates[_candidateId];\r\n        candidatesCount --;\r\n    }\r\n\r\n    function vote(uint _candidateId, uint _electionId) public {\r\n        // Require that they haven't voted before\r\n        //require(!voters[msg.sender], \"You have already cast a vote in this election\");\r\n        require(!elections[_electionId].voters[msg.sender], \"You have already voted in this election.\");\r\n\r\n        // Require a valid candidate to vote on\r\n        require(_candidateId > 0 && _candidateId <= candidatesCount, \"The candidate you tried to vote for doesn't exist.\");\r\n\r\n        // record that voter has voted\r\n        //voters[msg.sender] = true;\r\n        // update candidate vote count\r\n        candidates[_candidateId].voteCount++;\r\n        elections[_electionId].voters[msg.sender] = true;\r\n    }\r\n}",
  "sourcePath": "C:\\Users\\ciara\\DCU Modules\\Devote 3rd Year Project\\2020-ca326-tcoynemorgan-DecentralizedVotingApp\\code\\dapp_testing\\src\\contracts\\Election.sol",
  "compiler": {
    "name": "solc",
    "version": "0.5.16+commit.9c3226ce.Emscripten.clang"
  },
  "schemaVersion": "3.0.23",
  "updatedAt": "2020-02-27T21:45:40.017Z",
  "networkType": "ethereum",
  "devdoc": {
    "methods": {}
  },
  "userdoc": {
    "methods": {}
  }
}